{
  "_format": "hh-sol-artifact-1",
  "contractName": "Election",
  "sourceName": "contracts/Election.sol",
  "abi": [
    {
      "inputs": [
        {
          "internalType": "uint256",
          "name": "_durationInMinutes",
          "type": "uint256"
        }
      ],
      "stateMutability": "nonpayable",
      "type": "constructor"
    },
    {
      "anonymous": false,
      "inputs": [
        {
          "indexed": true,
          "internalType": "address",
          "name": "voter",
          "type": "address"
        },
        {
          "indexed": true,
          "internalType": "uint256",
          "name": "candidateIndex",
          "type": "uint256"
        }
      ],
      "name": "Voted",
      "type": "event"
    },
    {
      "anonymous": false,
      "inputs": [
        {
          "indexed": true,
          "internalType": "address",
          "name": "voter",
          "type": "address"
        },
        {
          "indexed": false,
          "internalType": "string",
          "name": "name",
          "type": "string"
        },
        {
          "indexed": false,
          "internalType": "string",
          "name": "idCard",
          "type": "string"
        }
      ],
      "name": "VoterRegistered",
      "type": "event"
    },
    {
      "anonymous": false,
      "inputs": [
        {
          "indexed": true,
          "internalType": "address",
          "name": "voter",
          "type": "address"
        }
      ],
      "name": "VoterVerified",
      "type": "event"
    },
    {
      "inputs": [
        {
          "internalType": "string",
          "name": "_name",
          "type": "string"
        },
        {
          "internalType": "string",
          "name": "_image",
          "type": "string"
        }
      ],
      "name": "addCandidate",
      "outputs": [],
      "stateMutability": "nonpayable",
      "type": "function"
    },
    {
      "inputs": [
        {
          "internalType": "uint256",
          "name": "",
          "type": "uint256"
        }
      ],
      "name": "candidates",
      "outputs": [
        {
          "internalType": "string",
          "name": "name",
          "type": "string"
        },
        {
          "internalType": "string",
          "name": "image",
          "type": "string"
        },
        {
          "internalType": "uint256",
          "name": "voteCount",
          "type": "uint256"
        }
      ],
      "stateMutability": "view",
      "type": "function"
    },
    {
      "inputs": [],
      "name": "electionEndTime",
      "outputs": [
        {
          "internalType": "uint256",
          "name": "",
          "type": "uint256"
        }
      ],
      "stateMutability": "view",
      "type": "function"
    },
    {
      "inputs": [],
      "name": "getAllCandidates",
      "outputs": [
        {
          "components": [
            {
              "internalType": "string",
              "name": "name",
              "type": "string"
            },
            {
              "internalType": "string",
              "name": "image",
              "type": "string"
            },
            {
              "internalType": "uint256",
              "name": "voteCount",
              "type": "uint256"
            }
          ],
          "internalType": "struct Election.Candidate[]",
          "name": "",
          "type": "tuple[]"
        }
      ],
      "stateMutability": "view",
      "type": "function"
    },
    {
      "inputs": [],
      "name": "getAllVoters",
      "outputs": [
        {
          "components": [
            {
              "internalType": "bool",
              "name": "isRegistered",
              "type": "bool"
            },
            {
              "internalType": "bool",
              "name": "isVerified",
              "type": "bool"
            },
            {
              "internalType": "string",
              "name": "name",
              "type": "string"
            },
            {
              "internalType": "string",
              "name": "idCard",
              "type": "string"
            },
            {
              "internalType": "address",
              "name": "account",
              "type": "address"
            }
          ],
          "internalType": "struct Election.Voter[]",
          "name": "",
          "type": "tuple[]"
        }
      ],
      "stateMutability": "view",
      "type": "function"
    },
    {
      "inputs": [],
      "name": "getAllVotes",
      "outputs": [
        {
          "internalType": "uint256[]",
          "name": "",
          "type": "uint256[]"
        }
      ],
      "stateMutability": "view",
      "type": "function"
    },
    {
      "inputs": [],
      "name": "getRemainingTime",
      "outputs": [
        {
          "internalType": "uint256",
          "name": "remainingTime",
          "type": "uint256"
        }
      ],
      "stateMutability": "view",
      "type": "function"
    },
    {
      "inputs": [],
      "name": "getStatusVote",
      "outputs": [
        {
          "internalType": "bool",
          "name": "hasVoted",
          "type": "bool"
        },
        {
          "internalType": "uint256",
          "name": "voteTimestamp_",
          "type": "uint256"
        }
      ],
      "stateMutability": "view",
      "type": "function"
    },
    {
      "inputs": [
        {
          "internalType": "address",
          "name": "",
          "type": "address"
        }
      ],
      "name": "isAdmin",
      "outputs": [
        {
          "internalType": "bool",
          "name": "",
          "type": "bool"
        }
      ],
      "stateMutability": "view",
      "type": "function"
    },
    {
      "inputs": [],
      "name": "owner",
      "outputs": [
        {
          "internalType": "address",
          "name": "",
          "type": "address"
        }
      ],
      "stateMutability": "view",
      "type": "function"
    },
    {
      "inputs": [
        {
          "internalType": "string",
          "name": "_name",
          "type": "string"
        },
        {
          "internalType": "string",
          "name": "_idCard",
          "type": "string"
        }
      ],
      "name": "registerVoter",
      "outputs": [],
      "stateMutability": "nonpayable",
      "type": "function"
    },
    {
      "inputs": [
        {
          "internalType": "address",
          "name": "_voterAddress",
          "type": "address"
        }
      ],
      "name": "verifyVoter",
      "outputs": [],
      "stateMutability": "nonpayable",
      "type": "function"
    },
    {
      "inputs": [
        {
          "internalType": "uint256",
          "name": "_candidateIndex",
          "type": "uint256"
        }
      ],
      "name": "vote",
      "outputs": [],
      "stateMutability": "nonpayable",
      "type": "function"
    },
    {
      "inputs": [
        {
          "internalType": "address",
          "name": "",
          "type": "address"
        }
      ],
      "name": "voteTimestamp",
      "outputs": [
        {
          "internalType": "uint256",
          "name": "",
          "type": "uint256"
        }
      ],
      "stateMutability": "view",
      "type": "function"
    },
    {
      "inputs": [
        {
          "internalType": "address",
          "name": "",
          "type": "address"
        }
      ],
      "name": "voted",
      "outputs": [
        {
          "internalType": "bool",
          "name": "",
          "type": "bool"
        }
      ],
      "stateMutability": "view",
      "type": "function"
    },
    {
      "inputs": [
        {
          "internalType": "address",
          "name": "",
          "type": "address"
        }
      ],
      "name": "voters",
      "outputs": [
        {
          "internalType": "bool",
          "name": "isRegistered",
          "type": "bool"
        },
        {
          "internalType": "bool",
          "name": "isVerified",
          "type": "bool"
        },
        {
          "internalType": "string",
          "name": "name",
          "type": "string"
        },
        {
          "internalType": "string",
          "name": "idCard",
          "type": "string"
        },
        {
          "internalType": "address",
          "name": "account",
          "type": "address"
        }
      ],
      "stateMutability": "view",
      "type": "function"
    }
  ],
  "bytecode": "0x60806040523480156200001157600080fd5b5060405162002bf938038062002bf9833981810160405281019062000037919062000138565b336000806101000a81548173ffffffffffffffffffffffffffffffffffffffff021916908373ffffffffffffffffffffffffffffffffffffffff1602179055506001600660003373ffffffffffffffffffffffffffffffffffffffff1673ffffffffffffffffffffffffffffffffffffffff16815260200190815260200160002060006101000a81548160ff021916908315150217905550603c81620000de919062000199565b42620000eb9190620001e4565b600181905550506200021f565b600080fd5b6000819050919050565b6200011281620000fd565b81146200011e57600080fd5b50565b600081519050620001328162000107565b92915050565b600060208284031215620001515762000150620000f8565b5b6000620001618482850162000121565b91505092915050565b7f4e487b7100000000000000000000000000000000000000000000000000000000600052601160045260246000fd5b6000620001a682620000fd565b9150620001b383620000fd565b9250828202620001c381620000fd565b91508282048414831517620001dd57620001dc6200016a565b5b5092915050565b6000620001f182620000fd565b9150620001fe83620000fd565b92508282019050808211156200021957620002186200016a565b5b92915050565b6129ca806200022f6000396000f3fe608060405234801561001057600080fd5b50600436106101005760003560e01c80636075b69b116100975780639e136e64116100665780639e136e641461029e578063a3ec138d146102bc578063aec2ccae146102f0578063efb98bcf1461032057610100565b80636075b69b14610216578063851b6ef2146102465780638a4c8847146102645780638da5cb5b1461028057610100565b80632b629c1d116100d35780632b629c1d146101895780632e6997fe146101a85780633477ee2e146101c657806335bbe70e146101f857610100565b80630121b93f1461010557806309bd09501461012157806324d7806c1461013d57806326541b561461016d575b600080fd5b61011f600480360381019061011a9190611981565b61033e565b005b61013b60048036038101906101369190611a0c565b610692565b005b61015760048036038101906101529190611a0c565b6109b0565b6040516101649190611a54565b60405180910390f35b61018760048036038101906101829190611bb5565b6109d0565b005b610191610bb1565b60405161019f929190611c3c565b60405180910390f35b6101b0610c49565b6040516101bd9190611e0c565b60405180910390f35b6101e060048036038101906101db9190611981565b610dd6565b6040516101ef93929190611e78565b60405180910390f35b610200610f20565b60405161020d919061201a565b60405180910390f35b610230600480360381019061022b9190611a0c565b611321565b60405161023d919061203c565b60405180910390f35b61024e611339565b60405161025b9190612106565b60405180910390f35b61027e60048036038101906102799190611bb5565b6113fd565b005b610288611704565b6040516102959190612137565b60405180910390f35b6102a6611728565b6040516102b3919061203c565b60405180910390f35b6102d660048036038101906102d19190611a0c565b61172e565b6040516102e7959493929190612152565b60405180910390f35b61030a60048036038101906103059190611a0c565b6118ae565b6040516103179190611a54565b60405180910390f35b6103286118ce565b604051610335919061203c565b60405180910390f35b600360003373ffffffffffffffffffffffffffffffffffffffff1673ffffffffffffffffffffffffffffffffffffffff16815260200190815260200160002060000160009054906101000a900460ff166103cd576040517f08c379a00000000000000000000000000000000000000000000000000000000081526004016103c4906121ff565b60405180910390fd5b600360003373ffffffffffffffffffffffffffffffffffffffff1673ffffffffffffffffffffffffffffffffffffffff16815260200190815260200160002060000160019054906101000a900460ff1661045c576040517f08c379a00000000000000000000000000000000000000000000000000000000081526004016104539061226b565b60405180910390fd5b60015442106104a0576040517f08c379a0000000000000000000000000000000000000000000000000000000008152600401610497906122d7565b60405180910390fd5b600460003373ffffffffffffffffffffffffffffffffffffffff1673ffffffffffffffffffffffffffffffffffffffff16815260200190815260200160002060009054906101000a900460ff161561052d576040517f08c379a000000000000000000000000000000000000000000000000000000000815260040161052490612343565b60405180910390fd5b6007805490508110610574576040517f08c379a000000000000000000000000000000000000000000000000000000000815260040161056b906123af565b60405180910390fd5b6001600460003373ffffffffffffffffffffffffffffffffffffffff1673ffffffffffffffffffffffffffffffffffffffff16815260200190815260200160002060006101000a81548160ff02191690831515021790555042600560003373ffffffffffffffffffffffffffffffffffffffff1673ffffffffffffffffffffffffffffffffffffffff1681526020019081526020016000208190555060078181548110610624576106236123cf565b5b906000526020600020906003020160020160008154809291906106469061242d565b9190505550803373ffffffffffffffffffffffffffffffffffffffff167f4d99b957a2bc29a30ebd96a7be8e68fe50a3c701db28a91436490b7d53870ca460405160405180910390a350565b60008054906101000a900473ffffffffffffffffffffffffffffffffffffffff1673ffffffffffffffffffffffffffffffffffffffff163373ffffffffffffffffffffffffffffffffffffffff1614610720576040517f08c379a0000000000000000000000000000000000000000000000000000000008152600401610717906124e7565b60405180910390fd5b600660003373ffffffffffffffffffffffffffffffffffffffff1673ffffffffffffffffffffffffffffffffffffffff16815260200190815260200160002060009054906101000a900460ff166107ac576040517f08c379a00000000000000000000000000000000000000000000000000000000081526004016107a390612553565b60405180910390fd5b60015442106107f0576040517f08c379a00000000000000000000000000000000000000000000000000000000081526004016107e7906122d7565b60405180910390fd5b600360008273ffffffffffffffffffffffffffffffffffffffff1673ffffffffffffffffffffffffffffffffffffffff16815260200190815260200160002060000160009054906101000a900460ff1661087f576040517f08c379a0000000000000000000000000000000000000000000000000000000008152600401610876906121ff565b60405180910390fd5b600360008273ffffffffffffffffffffffffffffffffffffffff1673ffffffffffffffffffffffffffffffffffffffff16815260200190815260200160002060000160019054906101000a900460ff161561090f576040517f08c379a0000000000000000000000000000000000000000000000000000000008152600401610906906125bf565b60405180910390fd5b6001600360008373ffffffffffffffffffffffffffffffffffffffff1673ffffffffffffffffffffffffffffffffffffffff16815260200190815260200160002060000160016101000a81548160ff0219169083151502179055508073ffffffffffffffffffffffffffffffffffffffff167f73d35f4b5dc2339683083dec639ba37f0f5592fc26de0e0603ac5ba2412cd00460405160405180910390a250565b60066020528060005260406000206000915054906101000a900460ff1681565b60008054906101000a900473ffffffffffffffffffffffffffffffffffffffff1673ffffffffffffffffffffffffffffffffffffffff163373ffffffffffffffffffffffffffffffffffffffff1614610a5e576040517f08c379a0000000000000000000000000000000000000000000000000000000008152600401610a55906124e7565b60405180910390fd5b600660003373ffffffffffffffffffffffffffffffffffffffff1673ffffffffffffffffffffffffffffffffffffffff16815260200190815260200160002060009054906101000a900460ff16610aea576040517f08c379a0000000000000000000000000000000000000000000000000000000008152600401610ae190612553565b60405180910390fd5b6001544210610b2e576040517f08c379a0000000000000000000000000000000000000000000000000000000008152600401610b25906122d7565b60405180910390fd5b60076040518060600160405280848152602001838152602001600081525090806001815401808255809150506001900390600052602060002090600302016000909190919091506000820151816000019081610b8a91906127eb565b506020820151816001019081610ba091906127eb565b506040820151816002015550505050565b600080600460003373ffffffffffffffffffffffffffffffffffffffff1673ffffffffffffffffffffffffffffffffffffffff16815260200190815260200160002060009054906101000a900460ff16600560003373ffffffffffffffffffffffffffffffffffffffff1673ffffffffffffffffffffffffffffffffffffffff16815260200190815260200160002054915091509091565b60606007805480602002602001604051908101604052809291908181526020016000905b82821015610dcd5783829060005260206000209060030201604051806060016040529081600082018054610ca09061260e565b80601f0160208091040260200160405190810160405280929190818152602001828054610ccc9061260e565b8015610d195780601f10610cee57610100808354040283529160200191610d19565b820191906000526020600020905b815481529060010190602001808311610cfc57829003601f168201915b50505050508152602001600182018054610d329061260e565b80601f0160208091040260200160405190810160405280929190818152602001828054610d5e9061260e565b8015610dab5780601f10610d8057610100808354040283529160200191610dab565b820191906000526020600020905b815481529060010190602001808311610d8e57829003601f168201915b5050505050815260200160028201548152505081526020019060010190610c6d565b50505050905090565b60078181548110610de657600080fd5b9060005260206000209060030201600091509050806000018054610e099061260e565b80601f0160208091040260200160405190810160405280929190818152602001828054610e359061260e565b8015610e825780601f10610e5757610100808354040283529160200191610e82565b820191906000526020600020905b815481529060010190602001808311610e6557829003601f168201915b505050505090806001018054610e979061260e565b80601f0160208091040260200160405190810160405280929190818152602001828054610ec39061260e565b8015610f105780601f10610ee557610100808354040283529160200191610f10565b820191906000526020600020905b815481529060010190602001808311610ef357829003601f168201915b5050505050908060020154905083565b606060008054906101000a900473ffffffffffffffffffffffffffffffffffffffff1673ffffffffffffffffffffffffffffffffffffffff163373ffffffffffffffffffffffffffffffffffffffff1614610fb0576040517f08c379a0000000000000000000000000000000000000000000000000000000008152600401610fa7906124e7565b60405180910390fd5b600660003373ffffffffffffffffffffffffffffffffffffffff1673ffffffffffffffffffffffffffffffffffffffff16815260200190815260200160002060009054906101000a900460ff1661103c576040517f08c379a000000000000000000000000000000000000000000000000000000000815260040161103390612553565b60405180910390fd5b6000600280549050905060008167ffffffffffffffff81111561106257611061611a8a565b5b60405190808252806020026020018201604052801561109b57816020015b6110886118ee565b8152602001906001900390816110805790505b50905060005b82811015611318576000600282815481106110bf576110be6123cf565b5b9060005260206000200160009054906101000a900473ffffffffffffffffffffffffffffffffffffffff169050600360008273ffffffffffffffffffffffffffffffffffffffff1673ffffffffffffffffffffffffffffffffffffffff1681526020019081526020016000206040518060a00160405290816000820160009054906101000a900460ff161515151581526020016000820160019054906101000a900460ff1615151515815260200160018201805461117c9061260e565b80601f01602080910402602001604051908101604052809291908181526020018280546111a89061260e565b80156111f55780601f106111ca576101008083540402835291602001916111f5565b820191906000526020600020905b8154815290600101906020018083116111d857829003601f168201915b5050505050815260200160028201805461120e9061260e565b80601f016020809104026020016040519081016040528092919081815260200182805461123a9061260e565b80156112875780601f1061125c57610100808354040283529160200191611287565b820191906000526020600020905b81548152906001019060200180831161126a57829003601f168201915b505050505081526020016003820160009054906101000a900473ffffffffffffffffffffffffffffffffffffffff1673ffffffffffffffffffffffffffffffffffffffff1673ffffffffffffffffffffffffffffffffffffffff16815250508383815181106112f9576112f86123cf565b5b60200260200101819052505080806113109061242d565b9150506110a1565b50809250505090565b60056020528060005260406000206000915090505481565b6060600060078054905067ffffffffffffffff81111561135c5761135b611a8a565b5b60405190808252806020026020018201604052801561138a5781602001602082028036833780820191505090505b50905060005b6007805490508110156113f557600781815481106113b1576113b06123cf565b5b9060005260206000209060030201600201548282815181106113d6576113d56123cf565b5b60200260200101818152505080806113ed9061242d565b915050611390565b508091505090565b6001544210611441576040517f08c379a0000000000000000000000000000000000000000000000000000000008152600401611438906122d7565b60405180910390fd5b600360003373ffffffffffffffffffffffffffffffffffffffff1673ffffffffffffffffffffffffffffffffffffffff16815260200190815260200160002060000160009054906101000a900460ff16156114d1576040517f08c379a00000000000000000000000000000000000000000000000000000000081526004016114c890612909565b60405180910390fd5b81600360003373ffffffffffffffffffffffffffffffffffffffff1673ffffffffffffffffffffffffffffffffffffffff168152602001908152602001600020600101908161152091906127eb565b5080600360003373ffffffffffffffffffffffffffffffffffffffff1673ffffffffffffffffffffffffffffffffffffffff168152602001908152602001600020600201908161157091906127eb565b5033600360003373ffffffffffffffffffffffffffffffffffffffff1673ffffffffffffffffffffffffffffffffffffffff16815260200190815260200160002060030160006101000a81548173ffffffffffffffffffffffffffffffffffffffff021916908373ffffffffffffffffffffffffffffffffffffffff1602179055506001600360003373ffffffffffffffffffffffffffffffffffffffff1673ffffffffffffffffffffffffffffffffffffffff16815260200190815260200160002060000160006101000a81548160ff0219169083151502179055506002339080600181540180825580915050600190039060005260206000200160009091909190916101000a81548173ffffffffffffffffffffffffffffffffffffffff021916908373ffffffffffffffffffffffffffffffffffffffff1602179055503373ffffffffffffffffffffffffffffffffffffffff167f96ac7a421360a2bd773d747b2f64b40a916821c4906dbfdebf787c292e741f7d83836040516116f8929190612929565b60405180910390a25050565b60008054906101000a900473ffffffffffffffffffffffffffffffffffffffff1681565b60015481565b60036020528060005260406000206000915090508060000160009054906101000a900460ff16908060000160019054906101000a900460ff16908060010180546117779061260e565b80601f01602080910402602001604051908101604052809291908181526020018280546117a39061260e565b80156117f05780601f106117c5576101008083540402835291602001916117f0565b820191906000526020600020905b8154815290600101906020018083116117d357829003601f168201915b5050505050908060020180546118059061260e565b80601f01602080910402602001604051908101604052809291908181526020018280546118319061260e565b801561187e5780601f106118535761010080835404028352916020019161187e565b820191906000526020600020905b81548152906001019060200180831161186157829003601f168201915b5050505050908060030160009054906101000a900473ffffffffffffffffffffffffffffffffffffffff16905085565b60046020528060005260406000206000915054906101000a900460ff1681565b60006001544210156118eb57426001546118e89190612960565b90505b90565b6040518060a001604052806000151581526020016000151581526020016060815260200160608152602001600073ffffffffffffffffffffffffffffffffffffffff1681525090565b6000604051905090565b600080fd5b600080fd5b6000819050919050565b61195e8161194b565b811461196957600080fd5b50565b60008135905061197b81611955565b92915050565b60006020828403121561199757611996611941565b5b60006119a58482850161196c565b91505092915050565b600073ffffffffffffffffffffffffffffffffffffffff82169050919050565b60006119d9826119ae565b9050919050565b6119e9816119ce565b81146119f457600080fd5b50565b600081359050611a06816119e0565b92915050565b600060208284031215611a2257611a21611941565b5b6000611a30848285016119f7565b91505092915050565b60008115159050919050565b611a4e81611a39565b82525050565b6000602082019050611a696000830184611a45565b92915050565b600080fd5b600080fd5b6000601f19601f8301169050919050565b7f4e487b7100000000000000000000000000000000000000000000000000000000600052604160045260246000fd5b611ac282611a79565b810181811067ffffffffffffffff82111715611ae157611ae0611a8a565b5b80604052505050565b6000611af4611937565b9050611b008282611ab9565b919050565b600067ffffffffffffffff821115611b2057611b1f611a8a565b5b611b2982611a79565b9050602081019050919050565b82818337600083830152505050565b6000611b58611b5384611b05565b611aea565b905082815260208101848484011115611b7457611b73611a74565b5b611b7f848285611b36565b509392505050565b600082601f830112611b9c57611b9b611a6f565b5b8135611bac848260208601611b45565b91505092915050565b60008060408385031215611bcc57611bcb611941565b5b600083013567ffffffffffffffff811115611bea57611be9611946565b5b611bf685828601611b87565b925050602083013567ffffffffffffffff811115611c1757611c16611946565b5b611c2385828601611b87565b9150509250929050565b611c368161194b565b82525050565b6000604082019050611c516000830185611a45565b611c5e6020830184611c2d565b9392505050565b600081519050919050565b600082825260208201905092915050565b6000819050602082019050919050565b600081519050919050565b600082825260208201905092915050565b60005b83811015611ccb578082015181840152602081019050611cb0565b60008484015250505050565b6000611ce282611c91565b611cec8185611c9c565b9350611cfc818560208601611cad565b611d0581611a79565b840191505092915050565b611d198161194b565b82525050565b60006060830160008301518482036000860152611d3c8282611cd7565b91505060208301518482036020860152611d568282611cd7565b9150506040830151611d6b6040860182611d10565b508091505092915050565b6000611d828383611d1f565b905092915050565b6000602082019050919050565b6000611da282611c65565b611dac8185611c70565b935083602082028501611dbe85611c81565b8060005b85811015611dfa5784840389528151611ddb8582611d76565b9450611de683611d8a565b925060208a01995050600181019050611dc2565b50829750879550505050505092915050565b60006020820190508181036000830152611e268184611d97565b905092915050565b600082825260208201905092915050565b6000611e4a82611c91565b611e548185611e2e565b9350611e64818560208601611cad565b611e6d81611a79565b840191505092915050565b60006060820190508181036000830152611e928186611e3f565b90508181036020830152611ea68185611e3f565b9050611eb56040830184611c2d565b949350505050565b600081519050919050565b600082825260208201905092915050565b6000819050602082019050919050565b611ef281611a39565b82525050565b611f01816119ce565b82525050565b600060a083016000830151611f1f6000860182611ee9565b506020830151611f326020860182611ee9565b5060408301518482036040860152611f4a8282611cd7565b91505060608301518482036060860152611f648282611cd7565b9150506080830151611f796080860182611ef8565b508091505092915050565b6000611f908383611f07565b905092915050565b6000602082019050919050565b6000611fb082611ebd565b611fba8185611ec8565b935083602082028501611fcc85611ed9565b8060005b858110156120085784840389528151611fe98582611f84565b9450611ff483611f98565b925060208a01995050600181019050611fd0565b50829750879550505050505092915050565b600060208201905081810360008301526120348184611fa5565b905092915050565b60006020820190506120516000830184611c2d565b92915050565b600081519050919050565b600082825260208201905092915050565b6000819050602082019050919050565b600061208f8383611d10565b60208301905092915050565b6000602082019050919050565b60006120b382612057565b6120bd8185612062565b93506120c883612073565b8060005b838110156120f95781516120e08882612083565b97506120eb8361209b565b9250506001810190506120cc565b5085935050505092915050565b6000602082019050818103600083015261212081846120a8565b905092915050565b612131816119ce565b82525050565b600060208201905061214c6000830184612128565b92915050565b600060a0820190506121676000830188611a45565b6121746020830187611a45565b81810360408301526121868186611e3f565b9050818103606083015261219a8185611e3f565b90506121a96080830184612128565b9695505050505050565b7f566f746572206973206e6f742072656769737465726564000000000000000000600082015250565b60006121e9601783611e2e565b91506121f4826121b3565b602082019050919050565b60006020820190508181036000830152612218816121dc565b9050919050565b7f566f746572206973206e6f742076657269666965640000000000000000000000600082015250565b6000612255601583611e2e565b91506122608261221f565b602082019050919050565b6000602082019050818103600083015261228481612248565b9050919050565b7f456c656374696f6e2068617320656e6465640000000000000000000000000000600082015250565b60006122c1601283611e2e565b91506122cc8261228b565b602082019050919050565b600060208201905081810360008301526122f0816122b4565b9050919050565b7f596f75206861766520616c726561647920766f74656400000000000000000000600082015250565b600061232d601683611e2e565b9150612338826122f7565b602082019050919050565b6000602082019050818103600083015261235c81612320565b9050919050565b7f496e76616c69642063616e64696461746520696e646578000000000000000000600082015250565b6000612399601783611e2e565b91506123a482612363565b602082019050919050565b600060208201905081810360008301526123c88161238c565b9050919050565b7f4e487b7100000000000000000000000000000000000000000000000000000000600052603260045260246000fd5b7f4e487b7100000000000000000000000000000000000000000000000000000000600052601160045260246000fd5b60006124388261194b565b91507fffffffffffffffffffffffffffffffffffffffffffffffffffffffffffffffff820361246a576124696123fe565b5b600182019050919050565b7f4f6e6c79206f776e65722063616e2063616c6c20746869732066756e6374696f60008201527f6e00000000000000000000000000000000000000000000000000000000000000602082015250565b60006124d1602183611e2e565b91506124dc82612475565b604082019050919050565b60006020820190508181036000830152612500816124c4565b9050919050565b7f4f6e6c792061646d696e2063616e206163636573732074686973000000000000600082015250565b600061253d601a83611e2e565b915061254882612507565b602082019050919050565b6000602082019050818103600083015261256c81612530565b9050919050565b7f566f74657220697320616c726561647920766572696669656400000000000000600082015250565b60006125a9601983611e2e565b91506125b482612573565b602082019050919050565b600060208201905081810360008301526125d88161259c565b9050919050565b7f4e487b7100000000000000000000000000000000000000000000000000000000600052602260045260246000fd5b6000600282049050600182168061262657607f821691505b602082108103612639576126386125df565b5b50919050565b60008190508160005260206000209050919050565b60006020601f8301049050919050565b600082821b905092915050565b6000600883026126a17fffffffffffffffffffffffffffffffffffffffffffffffffffffffffffffffff82612664565b6126ab8683612664565b95508019841693508086168417925050509392505050565b6000819050919050565b60006126e86126e36126de8461194b565b6126c3565b61194b565b9050919050565b6000819050919050565b612702836126cd565b61271661270e826126ef565b848454612671565b825550505050565b600090565b61272b61271e565b6127368184846126f9565b505050565b5b8181101561275a5761274f600082612723565b60018101905061273c565b5050565b601f82111561279f576127708161263f565b61277984612654565b81016020851015612788578190505b61279c61279485612654565b83018261273b565b50505b505050565b600082821c905092915050565b60006127c2600019846008026127a4565b1980831691505092915050565b60006127db83836127b1565b9150826002028217905092915050565b6127f482611c91565b67ffffffffffffffff81111561280d5761280c611a8a565b5b612817825461260e565b61282282828561275e565b600060209050601f8311600181146128555760008415612843578287015190505b61284d85826127cf565b8655506128b5565b601f1984166128638661263f565b60005b8281101561288b57848901518255600182019150602085019450602081019050612866565b868310156128a857848901516128a4601f8916826127b1565b8355505b6001600288020188555050505b505050505050565b7f566f74657220697320616c726561647920726567697374657265640000000000600082015250565b60006128f3601b83611e2e565b91506128fe826128bd565b602082019050919050565b60006020820190508181036000830152612922816128e6565b9050919050565b600060408201905081810360008301526129438185611e3f565b905081810360208301526129578184611e3f565b90509392505050565b600061296b8261194b565b91506129768361194b565b925082820390508181111561298e5761298d6123fe565b5b9291505056fea2646970667358221220ee0fceacc053bedd898dc04b339b07980403e158bd321e97f199c4d10543f20464736f6c63430008130033",
  "linkReferences": {},
  "deployedLinkReferences": {}
}