{
  "_format": "hh-sol-artifact-1",
  "contractName": "Election",
  "sourceName": "contracts/Election.sol",
  "abi": [
    {
      "inputs": [
        {
          "internalType": "uint256",
          "name": "_durationInMinutes",
          "type": "uint256"
        }
      ],
      "stateMutability": "nonpayable",
      "type": "constructor"
    },
    {
      "anonymous": false,
      "inputs": [
        {
          "indexed": true,
          "internalType": "address",
          "name": "voter",
          "type": "address"
        },
        {
          "indexed": true,
          "internalType": "uint256",
          "name": "candidateIndex",
          "type": "uint256"
        }
      ],
      "name": "Voted",
      "type": "event"
    },
    {
      "anonymous": false,
      "inputs": [
        {
          "indexed": true,
          "internalType": "address",
          "name": "voter",
          "type": "address"
        },
        {
          "indexed": false,
          "internalType": "string",
          "name": "name",
          "type": "string"
        },
        {
          "indexed": false,
          "internalType": "string",
          "name": "idCard",
          "type": "string"
        }
      ],
      "name": "VoterRegistered",
      "type": "event"
    },
    {
      "anonymous": false,
      "inputs": [
        {
          "indexed": true,
          "internalType": "address",
          "name": "voter",
          "type": "address"
        }
      ],
      "name": "VoterVerified",
      "type": "event"
    },
    {
      "inputs": [
        {
          "internalType": "string",
          "name": "_name",
          "type": "string"
        },
        {
          "internalType": "string",
          "name": "_image",
          "type": "string"
        }
      ],
      "name": "addCandidate",
      "outputs": [],
      "stateMutability": "nonpayable",
      "type": "function"
    },
    {
      "inputs": [
        {
          "internalType": "uint256",
          "name": "",
          "type": "uint256"
        }
      ],
      "name": "candidates",
      "outputs": [
        {
          "internalType": "string",
          "name": "name",
          "type": "string"
        },
        {
          "internalType": "string",
          "name": "image",
          "type": "string"
        },
        {
          "internalType": "uint256",
          "name": "voteCount",
          "type": "uint256"
        }
      ],
      "stateMutability": "view",
      "type": "function"
    },
    {
      "inputs": [],
      "name": "electionEndTime",
      "outputs": [
        {
          "internalType": "uint256",
          "name": "",
          "type": "uint256"
        }
      ],
      "stateMutability": "view",
      "type": "function"
    },
    {
      "inputs": [],
      "name": "getAllCandidates",
      "outputs": [
        {
          "components": [
            {
              "internalType": "string",
              "name": "name",
              "type": "string"
            },
            {
              "internalType": "string",
              "name": "image",
              "type": "string"
            },
            {
              "internalType": "uint256",
              "name": "voteCount",
              "type": "uint256"
            }
          ],
          "internalType": "struct Election.Candidate[]",
          "name": "",
          "type": "tuple[]"
        }
      ],
      "stateMutability": "view",
      "type": "function"
    },
    {
      "inputs": [],
      "name": "getAllVoters",
      "outputs": [
        {
          "components": [
            {
              "internalType": "bool",
              "name": "isRegistered",
              "type": "bool"
            },
            {
              "internalType": "bool",
              "name": "isVerified",
              "type": "bool"
            },
            {
              "internalType": "string",
              "name": "name",
              "type": "string"
            },
            {
              "internalType": "string",
              "name": "idCard",
              "type": "string"
            },
            {
              "internalType": "address",
              "name": "account",
              "type": "address"
            }
          ],
          "internalType": "struct Election.Voter[]",
          "name": "",
          "type": "tuple[]"
        }
      ],
      "stateMutability": "view",
      "type": "function"
    },
    {
      "inputs": [],
      "name": "getAllVotes",
      "outputs": [
        {
          "internalType": "uint256[]",
          "name": "",
          "type": "uint256[]"
        }
      ],
      "stateMutability": "view",
      "type": "function"
    },
    {
      "inputs": [],
      "name": "getRemainingTime",
      "outputs": [
        {
          "internalType": "uint256",
          "name": "remainingTime",
          "type": "uint256"
        }
      ],
      "stateMutability": "view",
      "type": "function"
    },
    {
      "inputs": [],
      "name": "getStatusVote",
      "outputs": [
        {
          "internalType": "bool",
          "name": "hasVoted",
          "type": "bool"
        },
        {
          "internalType": "uint256",
          "name": "voteTimestamp_",
          "type": "uint256"
        }
      ],
      "stateMutability": "view",
      "type": "function"
    },
    {
      "inputs": [
        {
          "internalType": "string",
          "name": "_name",
          "type": "string"
        }
      ],
      "name": "getVoterByName",
      "outputs": [
        {
          "components": [
            {
              "internalType": "bool",
              "name": "isRegistered",
              "type": "bool"
            },
            {
              "internalType": "bool",
              "name": "isVerified",
              "type": "bool"
            },
            {
              "internalType": "string",
              "name": "name",
              "type": "string"
            },
            {
              "internalType": "string",
              "name": "idCard",
              "type": "string"
            },
            {
              "internalType": "address",
              "name": "account",
              "type": "address"
            }
          ],
          "internalType": "struct Election.Voter",
          "name": "",
          "type": "tuple"
        }
      ],
      "stateMutability": "view",
      "type": "function"
    },
    {
      "inputs": [
        {
          "internalType": "address",
          "name": "",
          "type": "address"
        }
      ],
      "name": "isAdmin",
      "outputs": [
        {
          "internalType": "bool",
          "name": "",
          "type": "bool"
        }
      ],
      "stateMutability": "view",
      "type": "function"
    },
    {
      "inputs": [],
      "name": "owner",
      "outputs": [
        {
          "internalType": "address",
          "name": "",
          "type": "address"
        }
      ],
      "stateMutability": "view",
      "type": "function"
    },
    {
      "inputs": [
        {
          "internalType": "string",
          "name": "_name",
          "type": "string"
        },
        {
          "internalType": "string",
          "name": "_idCard",
          "type": "string"
        }
      ],
      "name": "registerVoter",
      "outputs": [],
      "stateMutability": "nonpayable",
      "type": "function"
    },
    {
      "inputs": [
        {
          "internalType": "address",
          "name": "_voterAddress",
          "type": "address"
        }
      ],
      "name": "verifyVoter",
      "outputs": [],
      "stateMutability": "nonpayable",
      "type": "function"
    },
    {
      "inputs": [
        {
          "internalType": "uint256",
          "name": "_candidateIndex",
          "type": "uint256"
        }
      ],
      "name": "vote",
      "outputs": [],
      "stateMutability": "nonpayable",
      "type": "function"
    },
    {
      "inputs": [
        {
          "internalType": "address",
          "name": "",
          "type": "address"
        }
      ],
      "name": "voteTimestamp",
      "outputs": [
        {
          "internalType": "uint256",
          "name": "",
          "type": "uint256"
        }
      ],
      "stateMutability": "view",
      "type": "function"
    },
    {
      "inputs": [
        {
          "internalType": "address",
          "name": "",
          "type": "address"
        }
      ],
      "name": "voted",
      "outputs": [
        {
          "internalType": "bool",
          "name": "",
          "type": "bool"
        }
      ],
      "stateMutability": "view",
      "type": "function"
    },
    {
      "inputs": [
        {
          "internalType": "address",
          "name": "",
          "type": "address"
        }
      ],
      "name": "voters",
      "outputs": [
        {
          "internalType": "bool",
          "name": "isRegistered",
          "type": "bool"
        },
        {
          "internalType": "bool",
          "name": "isVerified",
          "type": "bool"
        },
        {
          "internalType": "string",
          "name": "name",
          "type": "string"
        },
        {
          "internalType": "string",
          "name": "idCard",
          "type": "string"
        },
        {
          "internalType": "address",
          "name": "account",
          "type": "address"
        }
      ],
      "stateMutability": "view",
      "type": "function"
    }
  ],
  "bytecode": "0x60806040523480156200001157600080fd5b50604051620031bc380380620031bc833981810160405281019062000037919062000138565b336000806101000a81548173ffffffffffffffffffffffffffffffffffffffff021916908373ffffffffffffffffffffffffffffffffffffffff1602179055506001600660003373ffffffffffffffffffffffffffffffffffffffff1673ffffffffffffffffffffffffffffffffffffffff16815260200190815260200160002060006101000a81548160ff021916908315150217905550603c81620000de919062000199565b42620000eb9190620001e4565b600181905550506200021f565b600080fd5b6000819050919050565b6200011281620000fd565b81146200011e57600080fd5b50565b600081519050620001328162000107565b92915050565b600060208284031215620001515762000150620000f8565b5b6000620001618482850162000121565b91505092915050565b7f4e487b7100000000000000000000000000000000000000000000000000000000600052601160045260246000fd5b6000620001a682620000fd565b9150620001b383620000fd565b9250828202620001c381620000fd565b91508282048414831517620001dd57620001dc6200016a565b5b5092915050565b6000620001f182620000fd565b9150620001fe83620000fd565b92508282019050808211156200021957620002186200016a565b5b92915050565b612f8d806200022f6000396000f3fe608060405234801561001057600080fd5b506004361061010b5760003560e01c80636075b69b116100a25780638da5cb5b116100715780638da5cb5b146102bb5780639e136e64146102d9578063a3ec138d146102f7578063aec2ccae1461032b578063efb98bcf1461035b5761010b565b80636075b69b146102215780637feac2ac14610251578063851b6ef2146102815780638a4c88471461029f5761010b565b80632b629c1d116100de5780632b629c1d146101945780632e6997fe146101b35780633477ee2e146101d157806335bbe70e146102035761010b565b80630121b93f1461011057806309bd09501461012c57806324d7806c1461014857806326541b5614610178575b600080fd5b61012a60048036038101906101259190611d03565b610379565b005b61014660048036038101906101419190611d8e565b6106cd565b005b610162600480360381019061015d9190611d8e565b6109eb565b60405161016f9190611dd6565b60405180910390f35b610192600480360381019061018d9190611f37565b610a0b565b005b61019c610bec565b6040516101aa929190611fbe565b60405180910390f35b6101bb610c84565b6040516101c8919061218e565b60405180910390f35b6101eb60048036038101906101e69190611d03565b610e11565b6040516101fa939291906121fa565b60405180910390f35b61020b610f5b565b604051610218919061239c565b60405180910390f35b61023b60048036038101906102369190611d8e565b61135c565b60405161024891906123be565b60405180910390f35b61026b600480360381019061026691906123d9565b611374565b604051610278919061249f565b60405180910390f35b6102896116bb565b6040516102969190612570565b60405180910390f35b6102b960048036038101906102b49190611f37565b61177f565b005b6102c3611a86565b6040516102d091906125a1565b60405180910390f35b6102e1611aaa565b6040516102ee91906123be565b60405180910390f35b610311600480360381019061030c9190611d8e565b611ab0565b6040516103229594939291906125bc565b60405180910390f35b61034560048036038101906103409190611d8e565b611c30565b6040516103529190611dd6565b60405180910390f35b610363611c50565b60405161037091906123be565b60405180910390f35b600360003373ffffffffffffffffffffffffffffffffffffffff1673ffffffffffffffffffffffffffffffffffffffff16815260200190815260200160002060000160009054906101000a900460ff16610408576040517f08c379a00000000000000000000000000000000000000000000000000000000081526004016103ff90612669565b60405180910390fd5b600360003373ffffffffffffffffffffffffffffffffffffffff1673ffffffffffffffffffffffffffffffffffffffff16815260200190815260200160002060000160019054906101000a900460ff16610497576040517f08c379a000000000000000000000000000000000000000000000000000000000815260040161048e906126d5565b60405180910390fd5b60015442106104db576040517f08c379a00000000000000000000000000000000000000000000000000000000081526004016104d290612741565b60405180910390fd5b600460003373ffffffffffffffffffffffffffffffffffffffff1673ffffffffffffffffffffffffffffffffffffffff16815260200190815260200160002060009054906101000a900460ff1615610568576040517f08c379a000000000000000000000000000000000000000000000000000000000815260040161055f906127ad565b60405180910390fd5b60078054905081106105af576040517f08c379a00000000000000000000000000000000000000000000000000000000081526004016105a690612819565b60405180910390fd5b6001600460003373ffffffffffffffffffffffffffffffffffffffff1673ffffffffffffffffffffffffffffffffffffffff16815260200190815260200160002060006101000a81548160ff02191690831515021790555042600560003373ffffffffffffffffffffffffffffffffffffffff1673ffffffffffffffffffffffffffffffffffffffff168152602001908152602001600020819055506007818154811061065f5761065e612839565b5b9060005260206000209060030201600201600081548092919061068190612897565b9190505550803373ffffffffffffffffffffffffffffffffffffffff167f4d99b957a2bc29a30ebd96a7be8e68fe50a3c701db28a91436490b7d53870ca460405160405180910390a350565b60008054906101000a900473ffffffffffffffffffffffffffffffffffffffff1673ffffffffffffffffffffffffffffffffffffffff163373ffffffffffffffffffffffffffffffffffffffff161461075b576040517f08c379a000000000000000000000000000000000000000000000000000000000815260040161075290612951565b60405180910390fd5b600660003373ffffffffffffffffffffffffffffffffffffffff1673ffffffffffffffffffffffffffffffffffffffff16815260200190815260200160002060009054906101000a900460ff166107e7576040517f08c379a00000000000000000000000000000000000000000000000000000000081526004016107de906129bd565b60405180910390fd5b600154421061082b576040517f08c379a000000000000000000000000000000000000000000000000000000000815260040161082290612741565b60405180910390fd5b600360008273ffffffffffffffffffffffffffffffffffffffff1673ffffffffffffffffffffffffffffffffffffffff16815260200190815260200160002060000160009054906101000a900460ff166108ba576040517f08c379a00000000000000000000000000000000000000000000000000000000081526004016108b190612669565b60405180910390fd5b600360008273ffffffffffffffffffffffffffffffffffffffff1673ffffffffffffffffffffffffffffffffffffffff16815260200190815260200160002060000160019054906101000a900460ff161561094a576040517f08c379a000000000000000000000000000000000000000000000000000000000815260040161094190612a29565b60405180910390fd5b6001600360008373ffffffffffffffffffffffffffffffffffffffff1673ffffffffffffffffffffffffffffffffffffffff16815260200190815260200160002060000160016101000a81548160ff0219169083151502179055508073ffffffffffffffffffffffffffffffffffffffff167f73d35f4b5dc2339683083dec639ba37f0f5592fc26de0e0603ac5ba2412cd00460405160405180910390a250565b60066020528060005260406000206000915054906101000a900460ff1681565b60008054906101000a900473ffffffffffffffffffffffffffffffffffffffff1673ffffffffffffffffffffffffffffffffffffffff163373ffffffffffffffffffffffffffffffffffffffff1614610a99576040517f08c379a0000000000000000000000000000000000000000000000000000000008152600401610a9090612951565b60405180910390fd5b600660003373ffffffffffffffffffffffffffffffffffffffff1673ffffffffffffffffffffffffffffffffffffffff16815260200190815260200160002060009054906101000a900460ff16610b25576040517f08c379a0000000000000000000000000000000000000000000000000000000008152600401610b1c906129bd565b60405180910390fd5b6001544210610b69576040517f08c379a0000000000000000000000000000000000000000000000000000000008152600401610b6090612741565b60405180910390fd5b60076040518060600160405280848152602001838152602001600081525090806001815401808255809150506001900390600052602060002090600302016000909190919091506000820151816000019081610bc59190612c55565b506020820151816001019081610bdb9190612c55565b506040820151816002015550505050565b600080600460003373ffffffffffffffffffffffffffffffffffffffff1673ffffffffffffffffffffffffffffffffffffffff16815260200190815260200160002060009054906101000a900460ff16600560003373ffffffffffffffffffffffffffffffffffffffff1673ffffffffffffffffffffffffffffffffffffffff16815260200190815260200160002054915091509091565b60606007805480602002602001604051908101604052809291908181526020016000905b82821015610e085783829060005260206000209060030201604051806060016040529081600082018054610cdb90612a78565b80601f0160208091040260200160405190810160405280929190818152602001828054610d0790612a78565b8015610d545780601f10610d2957610100808354040283529160200191610d54565b820191906000526020600020905b815481529060010190602001808311610d3757829003601f168201915b50505050508152602001600182018054610d6d90612a78565b80601f0160208091040260200160405190810160405280929190818152602001828054610d9990612a78565b8015610de65780601f10610dbb57610100808354040283529160200191610de6565b820191906000526020600020905b815481529060010190602001808311610dc957829003601f168201915b5050505050815260200160028201548152505081526020019060010190610ca8565b50505050905090565b60078181548110610e2157600080fd5b9060005260206000209060030201600091509050806000018054610e4490612a78565b80601f0160208091040260200160405190810160405280929190818152602001828054610e7090612a78565b8015610ebd5780601f10610e9257610100808354040283529160200191610ebd565b820191906000526020600020905b815481529060010190602001808311610ea057829003601f168201915b505050505090806001018054610ed290612a78565b80601f0160208091040260200160405190810160405280929190818152602001828054610efe90612a78565b8015610f4b5780601f10610f2057610100808354040283529160200191610f4b565b820191906000526020600020905b815481529060010190602001808311610f2e57829003601f168201915b5050505050908060020154905083565b606060008054906101000a900473ffffffffffffffffffffffffffffffffffffffff1673ffffffffffffffffffffffffffffffffffffffff163373ffffffffffffffffffffffffffffffffffffffff1614610feb576040517f08c379a0000000000000000000000000000000000000000000000000000000008152600401610fe290612951565b60405180910390fd5b600660003373ffffffffffffffffffffffffffffffffffffffff1673ffffffffffffffffffffffffffffffffffffffff16815260200190815260200160002060009054906101000a900460ff16611077576040517f08c379a000000000000000000000000000000000000000000000000000000000815260040161106e906129bd565b60405180910390fd5b6000600280549050905060008167ffffffffffffffff81111561109d5761109c611e0c565b5b6040519080825280602002602001820160405280156110d657816020015b6110c3611c70565b8152602001906001900390816110bb5790505b50905060005b82811015611353576000600282815481106110fa576110f9612839565b5b9060005260206000200160009054906101000a900473ffffffffffffffffffffffffffffffffffffffff169050600360008273ffffffffffffffffffffffffffffffffffffffff1673ffffffffffffffffffffffffffffffffffffffff1681526020019081526020016000206040518060a00160405290816000820160009054906101000a900460ff161515151581526020016000820160019054906101000a900460ff161515151581526020016001820180546111b790612a78565b80601f01602080910402602001604051908101604052809291908181526020018280546111e390612a78565b80156112305780601f1061120557610100808354040283529160200191611230565b820191906000526020600020905b81548152906001019060200180831161121357829003601f168201915b5050505050815260200160028201805461124990612a78565b80601f016020809104026020016040519081016040528092919081815260200182805461127590612a78565b80156112c25780601f10611297576101008083540402835291602001916112c2565b820191906000526020600020905b8154815290600101906020018083116112a557829003601f168201915b505050505081526020016003820160009054906101000a900473ffffffffffffffffffffffffffffffffffffffff1673ffffffffffffffffffffffffffffffffffffffff1673ffffffffffffffffffffffffffffffffffffffff168152505083838151811061133457611333612839565b5b602002602001018190525050808061134b90612897565b9150506110dc565b50809250505090565b60056020528060005260406000206000915090505481565b61137c611c70565b60005b60028054905081101561167a576000600282815481106113a2576113a1612839565b5b9060005260206000200160009054906101000a900473ffffffffffffffffffffffffffffffffffffffff169050836040516020016113e09190612d63565b60405160208183030381529060405280519060200120600360008373ffffffffffffffffffffffffffffffffffffffff1673ffffffffffffffffffffffffffffffffffffffff1681526020019081526020016000206001016040516020016114489190612dfd565b604051602081830303815290604052805190602001200361166657600360008273ffffffffffffffffffffffffffffffffffffffff1673ffffffffffffffffffffffffffffffffffffffff1681526020019081526020016000206040518060a00160405290816000820160009054906101000a900460ff161515151581526020016000820160019054906101000a900460ff161515151581526020016001820180546114f390612a78565b80601f016020809104026020016040519081016040528092919081815260200182805461151f90612a78565b801561156c5780601f106115415761010080835404028352916020019161156c565b820191906000526020600020905b81548152906001019060200180831161154f57829003601f168201915b5050505050815260200160028201805461158590612a78565b80601f01602080910402602001604051908101604052809291908181526020018280546115b190612a78565b80156115fe5780601f106115d3576101008083540402835291602001916115fe565b820191906000526020600020905b8154815290600101906020018083116115e157829003601f168201915b505050505081526020016003820160009054906101000a900473ffffffffffffffffffffffffffffffffffffffff1673ffffffffffffffffffffffffffffffffffffffff1673ffffffffffffffffffffffffffffffffffffffff1681525050925050506116b6565b50808061167290612897565b91505061137f565b506040517f08c379a00000000000000000000000000000000000000000000000000000000081526004016116ad90612e60565b60405180910390fd5b919050565b6060600060078054905067ffffffffffffffff8111156116de576116dd611e0c565b5b60405190808252806020026020018201604052801561170c5781602001602082028036833780820191505090505b50905060005b600780549050811015611777576007818154811061173357611732612839565b5b90600052602060002090600302016002015482828151811061175857611757612839565b5b602002602001018181525050808061176f90612897565b915050611712565b508091505090565b60015442106117c3576040517f08c379a00000000000000000000000000000000000000000000000000000000081526004016117ba90612741565b60405180910390fd5b600360003373ffffffffffffffffffffffffffffffffffffffff1673ffffffffffffffffffffffffffffffffffffffff16815260200190815260200160002060000160009054906101000a900460ff1615611853576040517f08c379a000000000000000000000000000000000000000000000000000000000815260040161184a90612ecc565b60405180910390fd5b81600360003373ffffffffffffffffffffffffffffffffffffffff1673ffffffffffffffffffffffffffffffffffffffff16815260200190815260200160002060010190816118a29190612c55565b5080600360003373ffffffffffffffffffffffffffffffffffffffff1673ffffffffffffffffffffffffffffffffffffffff16815260200190815260200160002060020190816118f29190612c55565b5033600360003373ffffffffffffffffffffffffffffffffffffffff1673ffffffffffffffffffffffffffffffffffffffff16815260200190815260200160002060030160006101000a81548173ffffffffffffffffffffffffffffffffffffffff021916908373ffffffffffffffffffffffffffffffffffffffff1602179055506001600360003373ffffffffffffffffffffffffffffffffffffffff1673ffffffffffffffffffffffffffffffffffffffff16815260200190815260200160002060000160006101000a81548160ff0219169083151502179055506002339080600181540180825580915050600190039060005260206000200160009091909190916101000a81548173ffffffffffffffffffffffffffffffffffffffff021916908373ffffffffffffffffffffffffffffffffffffffff1602179055503373ffffffffffffffffffffffffffffffffffffffff167f96ac7a421360a2bd773d747b2f64b40a916821c4906dbfdebf787c292e741f7d8383604051611a7a929190612eec565b60405180910390a25050565b60008054906101000a900473ffffffffffffffffffffffffffffffffffffffff1681565b60015481565b60036020528060005260406000206000915090508060000160009054906101000a900460ff16908060000160019054906101000a900460ff1690806001018054611af990612a78565b80601f0160208091040260200160405190810160405280929190818152602001828054611b2590612a78565b8015611b725780601f10611b4757610100808354040283529160200191611b72565b820191906000526020600020905b815481529060010190602001808311611b5557829003601f168201915b505050505090806002018054611b8790612a78565b80601f0160208091040260200160405190810160405280929190818152602001828054611bb390612a78565b8015611c005780601f10611bd557610100808354040283529160200191611c00565b820191906000526020600020905b815481529060010190602001808311611be357829003601f168201915b5050505050908060030160009054906101000a900473ffffffffffffffffffffffffffffffffffffffff16905085565b60046020528060005260406000206000915054906101000a900460ff1681565b6000600154421015611c6d5742600154611c6a9190612f23565b90505b90565b6040518060a001604052806000151581526020016000151581526020016060815260200160608152602001600073ffffffffffffffffffffffffffffffffffffffff1681525090565b6000604051905090565b600080fd5b600080fd5b6000819050919050565b611ce081611ccd565b8114611ceb57600080fd5b50565b600081359050611cfd81611cd7565b92915050565b600060208284031215611d1957611d18611cc3565b5b6000611d2784828501611cee565b91505092915050565b600073ffffffffffffffffffffffffffffffffffffffff82169050919050565b6000611d5b82611d30565b9050919050565b611d6b81611d50565b8114611d7657600080fd5b50565b600081359050611d8881611d62565b92915050565b600060208284031215611da457611da3611cc3565b5b6000611db284828501611d79565b91505092915050565b60008115159050919050565b611dd081611dbb565b82525050565b6000602082019050611deb6000830184611dc7565b92915050565b600080fd5b600080fd5b6000601f19601f8301169050919050565b7f4e487b7100000000000000000000000000000000000000000000000000000000600052604160045260246000fd5b611e4482611dfb565b810181811067ffffffffffffffff82111715611e6357611e62611e0c565b5b80604052505050565b6000611e76611cb9565b9050611e828282611e3b565b919050565b600067ffffffffffffffff821115611ea257611ea1611e0c565b5b611eab82611dfb565b9050602081019050919050565b82818337600083830152505050565b6000611eda611ed584611e87565b611e6c565b905082815260208101848484011115611ef657611ef5611df6565b5b611f01848285611eb8565b509392505050565b600082601f830112611f1e57611f1d611df1565b5b8135611f2e848260208601611ec7565b91505092915050565b60008060408385031215611f4e57611f4d611cc3565b5b600083013567ffffffffffffffff811115611f6c57611f6b611cc8565b5b611f7885828601611f09565b925050602083013567ffffffffffffffff811115611f9957611f98611cc8565b5b611fa585828601611f09565b9150509250929050565b611fb881611ccd565b82525050565b6000604082019050611fd36000830185611dc7565b611fe06020830184611faf565b9392505050565b600081519050919050565b600082825260208201905092915050565b6000819050602082019050919050565b600081519050919050565b600082825260208201905092915050565b60005b8381101561204d578082015181840152602081019050612032565b60008484015250505050565b600061206482612013565b61206e818561201e565b935061207e81856020860161202f565b61208781611dfb565b840191505092915050565b61209b81611ccd565b82525050565b600060608301600083015184820360008601526120be8282612059565b915050602083015184820360208601526120d88282612059565b91505060408301516120ed6040860182612092565b508091505092915050565b600061210483836120a1565b905092915050565b6000602082019050919050565b600061212482611fe7565b61212e8185611ff2565b93508360208202850161214085612003565b8060005b8581101561217c578484038952815161215d85826120f8565b94506121688361210c565b925060208a01995050600181019050612144565b50829750879550505050505092915050565b600060208201905081810360008301526121a88184612119565b905092915050565b600082825260208201905092915050565b60006121cc82612013565b6121d681856121b0565b93506121e681856020860161202f565b6121ef81611dfb565b840191505092915050565b6000606082019050818103600083015261221481866121c1565b9050818103602083015261222881856121c1565b90506122376040830184611faf565b949350505050565b600081519050919050565b600082825260208201905092915050565b6000819050602082019050919050565b61227481611dbb565b82525050565b61228381611d50565b82525050565b600060a0830160008301516122a1600086018261226b565b5060208301516122b4602086018261226b565b50604083015184820360408601526122cc8282612059565b915050606083015184820360608601526122e68282612059565b91505060808301516122fb608086018261227a565b508091505092915050565b60006123128383612289565b905092915050565b6000602082019050919050565b60006123328261223f565b61233c818561224a565b93508360208202850161234e8561225b565b8060005b8581101561238a578484038952815161236b8582612306565b94506123768361231a565b925060208a01995050600181019050612352565b50829750879550505050505092915050565b600060208201905081810360008301526123b68184612327565b905092915050565b60006020820190506123d36000830184611faf565b92915050565b6000602082840312156123ef576123ee611cc3565b5b600082013567ffffffffffffffff81111561240d5761240c611cc8565b5b61241984828501611f09565b91505092915050565b600060a08301600083015161243a600086018261226b565b50602083015161244d602086018261226b565b50604083015184820360408601526124658282612059565b9150506060830151848203606086015261247f8282612059565b9150506080830151612494608086018261227a565b508091505092915050565b600060208201905081810360008301526124b98184612422565b905092915050565b600081519050919050565b600082825260208201905092915050565b6000819050602082019050919050565b60006124f98383612092565b60208301905092915050565b6000602082019050919050565b600061251d826124c1565b61252781856124cc565b9350612532836124dd565b8060005b8381101561256357815161254a88826124ed565b975061255583612505565b925050600181019050612536565b5085935050505092915050565b6000602082019050818103600083015261258a8184612512565b905092915050565b61259b81611d50565b82525050565b60006020820190506125b66000830184612592565b92915050565b600060a0820190506125d16000830188611dc7565b6125de6020830187611dc7565b81810360408301526125f081866121c1565b9050818103606083015261260481856121c1565b90506126136080830184612592565b9695505050505050565b7f566f746572206973206e6f742072656769737465726564000000000000000000600082015250565b60006126536017836121b0565b915061265e8261261d565b602082019050919050565b6000602082019050818103600083015261268281612646565b9050919050565b7f566f746572206973206e6f742076657269666965640000000000000000000000600082015250565b60006126bf6015836121b0565b91506126ca82612689565b602082019050919050565b600060208201905081810360008301526126ee816126b2565b9050919050565b7f456c656374696f6e2068617320656e6465640000000000000000000000000000600082015250565b600061272b6012836121b0565b9150612736826126f5565b602082019050919050565b6000602082019050818103600083015261275a8161271e565b9050919050565b7f596f75206861766520616c726561647920766f74656400000000000000000000600082015250565b60006127976016836121b0565b91506127a282612761565b602082019050919050565b600060208201905081810360008301526127c68161278a565b9050919050565b7f496e76616c69642063616e64696461746520696e646578000000000000000000600082015250565b60006128036017836121b0565b915061280e826127cd565b602082019050919050565b60006020820190508181036000830152612832816127f6565b9050919050565b7f4e487b7100000000000000000000000000000000000000000000000000000000600052603260045260246000fd5b7f4e487b7100000000000000000000000000000000000000000000000000000000600052601160045260246000fd5b60006128a282611ccd565b91507fffffffffffffffffffffffffffffffffffffffffffffffffffffffffffffffff82036128d4576128d3612868565b5b600182019050919050565b7f4f6e6c79206f776e65722063616e2063616c6c20746869732066756e6374696f60008201527f6e00000000000000000000000000000000000000000000000000000000000000602082015250565b600061293b6021836121b0565b9150612946826128df565b604082019050919050565b6000602082019050818103600083015261296a8161292e565b9050919050565b7f4f6e6c792061646d696e2063616e206163636573732074686973000000000000600082015250565b60006129a7601a836121b0565b91506129b282612971565b602082019050919050565b600060208201905081810360008301526129d68161299a565b9050919050565b7f566f74657220697320616c726561647920766572696669656400000000000000600082015250565b6000612a136019836121b0565b9150612a1e826129dd565b602082019050919050565b60006020820190508181036000830152612a4281612a06565b9050919050565b7f4e487b7100000000000000000000000000000000000000000000000000000000600052602260045260246000fd5b60006002820490506001821680612a9057607f821691505b602082108103612aa357612aa2612a49565b5b50919050565b60008190508160005260206000209050919050565b60006020601f8301049050919050565b600082821b905092915050565b600060088302612b0b7fffffffffffffffffffffffffffffffffffffffffffffffffffffffffffffffff82612ace565b612b158683612ace565b95508019841693508086168417925050509392505050565b6000819050919050565b6000612b52612b4d612b4884611ccd565b612b2d565b611ccd565b9050919050565b6000819050919050565b612b6c83612b37565b612b80612b7882612b59565b848454612adb565b825550505050565b600090565b612b95612b88565b612ba0818484612b63565b505050565b5b81811015612bc457612bb9600082612b8d565b600181019050612ba6565b5050565b601f821115612c0957612bda81612aa9565b612be384612abe565b81016020851015612bf2578190505b612c06612bfe85612abe565b830182612ba5565b50505b505050565b600082821c905092915050565b6000612c2c60001984600802612c0e565b1980831691505092915050565b6000612c458383612c1b565b9150826002028217905092915050565b612c5e82612013565b67ffffffffffffffff811115612c7757612c76611e0c565b5b612c818254612a78565b612c8c828285612bc8565b600060209050601f831160018114612cbf5760008415612cad578287015190505b612cb78582612c39565b865550612d1f565b601f198416612ccd86612aa9565b60005b82811015612cf557848901518255600182019150602085019450602081019050612cd0565b86831015612d125784890151612d0e601f891682612c1b565b8355505b6001600288020188555050505b505050505050565b600081905092915050565b6000612d3d82612013565b612d478185612d27565b9350612d5781856020860161202f565b80840191505092915050565b6000612d6f8284612d32565b915081905092915050565b60008154612d8781612a78565b612d918186612d27565b94506001821660008114612dac5760018114612dc157612df4565b60ff1983168652811515820286019350612df4565b612dca85612aa9565b60005b83811015612dec57815481890152600182019150602081019050612dcd565b838801955050505b50505092915050565b6000612e098284612d7a565b915081905092915050565b7f566f746572206e6f7420666f756e640000000000000000000000000000000000600082015250565b6000612e4a600f836121b0565b9150612e5582612e14565b602082019050919050565b60006020820190508181036000830152612e7981612e3d565b9050919050565b7f566f74657220697320616c726561647920726567697374657265640000000000600082015250565b6000612eb6601b836121b0565b9150612ec182612e80565b602082019050919050565b60006020820190508181036000830152612ee581612ea9565b9050919050565b60006040820190508181036000830152612f0681856121c1565b90508181036020830152612f1a81846121c1565b90509392505050565b6000612f2e82611ccd565b9150612f3983611ccd565b9250828203905081811115612f5157612f50612868565b5b9291505056fea2646970667358221220dcfe96b4de0c19d063517b1a6e1a573d7dccfd8e58b803e7a2ff3ed1c54e415164736f6c63430008130033",
  "linkReferences": {},
  "deployedLinkReferences": {}
}